:100000004FC0000049C1000047C1000045C10000C9
:1000100043C1000041C100003FC100003DC10000DC
:100020003BC1000039C1000037C1000035C10000EC
:1000300033C1000031C100002FC100002DC10000FC
:100040002BC1000029C1000027C1000025C100000C
:1000500023C1000021C100001FC100001DC100001C
:100060001BC1000019C1000017C1000015C100002C
:1000700013C1000011C100000FC100000DC100003C
:100080000BC1000009C1000007C1000005C100004C
:1000900003C1000001C10000FFC00000FDC000005E
:1000A00011241FBECFEFCDBFDFE3DEBFE0EAF0E0FB
:1000B00040E017C0B591A59135912591059107FDB7
:1000C0000CC095918591EF01F92FE82F05900D92C5
:1000D000A217B307D9F7FE0104C01D92A217B307F8
:1000E000E1F7E03AF40731F70AD002C0F894FFCF05
:0E00F000EC010AD006D0CE0105D0CE0104D01E
:0400FE0005D0FFCF5B
:0201020008955E
:0201040008955C
:02010600F2DF26
:02010800089558
:02010A0000C033
:10010C0026D04C98449A4D98459A4E98469A4F98BA
:10011C00479A6898609A6998619A6A98629A6B98FB
:10012C00639A8B98839AAC98A49AAD98A59AA69842
:10013C00E6EBF4E08081877F808340D041D042D0D1
:0E014C0052D05AD062D072D073D074D075C029
:10015A00E0E1F4E0808188608193E83184E0F80787
:10016A00C9F7E0E3F4E0808188608193E83384E0B2
:10017A00F807C9F7E0E5F4E0808188608193E83503
:10018A0084E0F807C9F7E0E7F4E0808188608193AA
:10019A00E83784E0F807C9F7E0E9F4E0808188608D
:1001AA008193E83984E0F807C9F7E0EBF4E080814D
:0E01BA0088608193E83B84E0F807C9F7089558
:0401C80080E0089536
:0401CC0080E0089532
:1001D0000598E5E1F4E08081877F8083E0EEF5E03B
:1001E0008281816082830C98049A828181608283FB
:0201F0002BC022
:1001F2004198E1E5F4E08081877F80834898409AC6
:020202002CC00E
:10020400A198E1EBF4E08081877F8083A898A09A8D
:020214002DC0FB
:100216002598E5E3F4E08081877F8083E0EEF5E0D2
:100226008281806482832C98249A8281806482836E
:0202360026C0E0
:0402380080E00895C5
:04023C0080E00895C1
:0402400080E00895BD
:0402440080E00895B9
:10024800E0E0F8E08DE695E08087918780EC868392
:0402580080E00895A5
:10025C00E0E2F8E08DE695E08087918780EC86837C
:04026C0080E0089591
:10027000E0E4F8E08DE695E08087918780EC868366
:0402800080E008957D
:10028400E0E6F8E08DE695E08087918780EC868350
:0402940080E0089569
:02029800B3CEE3
:00000001FF
