:100000000C9450000C94B1010C94B1010C94B1010A
:100010000C94B1010C94B1010C94B1010C94B10198
:100020000C94B1010C94B1010C94B1010C94B10188
:100030000C94B1010C94B1010C94B1010C94B10178
:100040000C94B1010C94B1010C94B1010C94B10168
:100050000C94B1010C94B1010C94B1010C94B10158
:100060000C94B1010C94B1010C94B1010C94B10148
:100070000C94B1010C94B1010C94B1010C94B10138
:100080000C94B1010C94B1010C94B1010C94B10128
:100090000C94B1010C94B1010C94B1010C94B10118
:1000A00011241FBECFEFCDBFDFE3DEBFE0EAF0E0FB
:1000B00040E017C0B591A59135912591059107FDB7
:1000C0000CC095918591EF01F92FE82F05900D92C5
:1000D000A217B307D9F7FE0104C01D92A217B307F8
:1000E000E1F7E03AF40731F70E94AE010C94780191
:0400F000F894FFCFB2
:1000F4000E94DB0089B18F7E89B988B1806188B99B
:1001040089B18F7D89B988B1806288B989B18F7BC3
:1001140089B988B1806488B989B18F7789B988B180
:10012400806888B98DB18E7F8DB98CB181608CB9AE
:100134008DB18D7F8DB98CB182608CB98DB18B7F7F
:100144008DB98CB184608CB98DB1877F8DB98CB138
:1001540088608CB981B3877F81BB80B3886080BBA2
:1001640085B38F7E85BB84B3806184BB85B38F7D6B
:1001740085BB84B3806284BB84B38F7B84BBE6EB92
:10018400F4E08081877F80830E94B5010E94BB01D7
:100194000E9424010E9456010E9467010E943D01B1
:1001A4000E94BD010E94B7010E94B9010E94B301DF
:0201B4000895AC
:1001B60080E008C0E82FF0E0E05FFB4F9081986098
:1001C60090838F5F8830B0F380E008C0E82FF0E0BE
:1001D600E05DFB4F9081986090838F5F8830B0F32D
:1001E60080E008C0E82FF0E0E05BFB4F908198606C
:1001F60090838F5F8830B0F380E008C0E82FF0E08E
:10020600E059FB4F9081986090838F5F8830B0F300
:1002160080E008C0E82FF0E0E057FB4F908198603F
:1002260090838F5F8830B0F380E008C0E82FF0E05D
:10023600E055FB4F9081986090838F5F8830B0F3D4
:02024600089519
:1002480080B18F7D80B9E5E1F4E08081877F80838C
:10025800E0EEF5E082818160828381B18F7E81B991
:1002680080B1806180B98281816082830E9483012C
:020278000895E7
:10027A0084B18F7D84B9E5E3F4E08081877F808350
:10028A00E0EEF5E082818064828385B18F7E85B954
:10029A0084B1806184B98281806482830E94A101D1
:0202AA000895B5
:1002AC0088B18D7F88B9E1E5F4E08081877F808318
:1002BC0089B18E7F89B988B1816088B90E948D011E
:0202CC00089593
:1002CE0084B38D7F84BBE1EBF4E08081877F8083F4
:1002DE0085B38E7F85BB84B3816084BB0E949701FA
:0202EE00089571
:1002F000EC010E94C2010E94C101CE010E94C30113
:06030000CE010E94BF01C6
:10030600E0E0F8E08DE695E08087918780EC8683D3
:0403160080E00895E6
:10031A00E0E2F8E08DE695E08087918780EC8683BD
:04032A0080E00895D2
:10032E00E0E4F8E08DE695E08087918780EC8683A7
:04033E0080E00895BE
:10034200E0E6F8E08DE695E08087918780EC868391
:0403520080E00895AA
:060356000E947A000895E8
:06035C000E94AB01FFCF7F
:040362000C940000F7
:0403660080E0089596
:04036A0080E0089592
:04036E0080E008958E
:0403720080E008958A
:0403760080E0089586
:04037A0080E0089582
:04037E000E94780061
:020382000895DC
:020384000895DA
:020386000895D8
:00000001FF
